{
  "_format": "hh-sol-artifact-1",
  "contractName": "YourCollectible",
  "sourceName": "contracts/YourCollectible.sol",
  "abi": [
    {
      "inputs": [],
      "stateMutability": "nonpayable",
      "type": "constructor"
    },
    {
      "anonymous": false,
      "inputs": [
        {
          "indexed": true,
          "internalType": "address",
          "name": "owner",
          "type": "address"
        },
        {
          "indexed": true,
          "internalType": "address",
          "name": "approved",
          "type": "address"
        },
        {
          "indexed": true,
          "internalType": "uint256",
          "name": "tokenId",
          "type": "uint256"
        }
      ],
      "name": "Approval",
      "type": "event"
    },
    {
      "anonymous": false,
      "inputs": [
        {
          "indexed": true,
          "internalType": "address",
          "name": "owner",
          "type": "address"
        },
        {
          "indexed": true,
          "internalType": "address",
          "name": "operator",
          "type": "address"
        },
        {
          "indexed": false,
          "internalType": "bool",
          "name": "approved",
          "type": "bool"
        }
      ],
      "name": "ApprovalForAll",
      "type": "event"
    },
    {
      "anonymous": false,
      "inputs": [
        {
          "indexed": true,
          "internalType": "address",
          "name": "previousOwner",
          "type": "address"
        },
        {
          "indexed": true,
          "internalType": "address",
          "name": "newOwner",
          "type": "address"
        }
      ],
      "name": "OwnershipTransferred",
      "type": "event"
    },
    {
      "anonymous": false,
      "inputs": [
        {
          "indexed": true,
          "internalType": "address",
          "name": "from",
          "type": "address"
        },
        {
          "indexed": true,
          "internalType": "address",
          "name": "to",
          "type": "address"
        },
        {
          "indexed": true,
          "internalType": "uint256",
          "name": "tokenId",
          "type": "uint256"
        }
      ],
      "name": "Transfer",
      "type": "event"
    },
    {
      "inputs": [
        {
          "internalType": "address",
          "name": "to",
          "type": "address"
        },
        {
          "internalType": "uint256",
          "name": "tokenId",
          "type": "uint256"
        }
      ],
      "name": "approve",
      "outputs": [],
      "stateMutability": "nonpayable",
      "type": "function"
    },
    {
      "inputs": [
        {
          "internalType": "address",
          "name": "owner",
          "type": "address"
        }
      ],
      "name": "balanceOf",
      "outputs": [
        {
          "internalType": "uint256",
          "name": "",
          "type": "uint256"
        }
      ],
      "stateMutability": "view",
      "type": "function"
    },
    {
      "inputs": [
        {
          "internalType": "uint256",
          "name": "tokenId",
          "type": "uint256"
        }
      ],
      "name": "getApproved",
      "outputs": [
        {
          "internalType": "address",
          "name": "",
          "type": "address"
        }
      ],
      "stateMutability": "view",
      "type": "function"
    },
    {
      "inputs": [
        {
          "internalType": "address",
          "name": "owner",
          "type": "address"
        },
        {
          "internalType": "address",
          "name": "operator",
          "type": "address"
        }
      ],
      "name": "isApprovedForAll",
      "outputs": [
        {
          "internalType": "bool",
          "name": "",
          "type": "bool"
        }
      ],
      "stateMutability": "view",
      "type": "function"
    },
    {
      "inputs": [
        {
          "internalType": "address",
          "name": "to",
          "type": "address"
        },
        {
          "internalType": "string",
          "name": "uri",
          "type": "string"
        }
      ],
      "name": "mintItem",
      "outputs": [
        {
          "internalType": "uint256",
          "name": "",
          "type": "uint256"
        }
      ],
      "stateMutability": "nonpayable",
      "type": "function"
    },
    {
      "inputs": [],
      "name": "name",
      "outputs": [
        {
          "internalType": "string",
          "name": "",
          "type": "string"
        }
      ],
      "stateMutability": "view",
      "type": "function"
    },
    {
      "inputs": [],
      "name": "owner",
      "outputs": [
        {
          "internalType": "address",
          "name": "",
          "type": "address"
        }
      ],
      "stateMutability": "view",
      "type": "function"
    },
    {
      "inputs": [
        {
          "internalType": "uint256",
          "name": "tokenId",
          "type": "uint256"
        }
      ],
      "name": "ownerOf",
      "outputs": [
        {
          "internalType": "address",
          "name": "",
          "type": "address"
        }
      ],
      "stateMutability": "view",
      "type": "function"
    },
    {
      "inputs": [],
      "name": "renounceOwnership",
      "outputs": [],
      "stateMutability": "nonpayable",
      "type": "function"
    },
    {
      "inputs": [
        {
          "internalType": "address",
          "name": "from",
          "type": "address"
        },
        {
          "internalType": "address",
          "name": "to",
          "type": "address"
        },
        {
          "internalType": "uint256",
          "name": "tokenId",
          "type": "uint256"
        }
      ],
      "name": "safeTransferFrom",
      "outputs": [],
      "stateMutability": "nonpayable",
      "type": "function"
    },
    {
      "inputs": [
        {
          "internalType": "address",
          "name": "from",
          "type": "address"
        },
        {
          "internalType": "address",
          "name": "to",
          "type": "address"
        },
        {
          "internalType": "uint256",
          "name": "tokenId",
          "type": "uint256"
        },
        {
          "internalType": "bytes",
          "name": "_data",
          "type": "bytes"
        }
      ],
      "name": "safeTransferFrom",
      "outputs": [],
      "stateMutability": "nonpayable",
      "type": "function"
    },
    {
      "inputs": [
        {
          "internalType": "address",
          "name": "operator",
          "type": "address"
        },
        {
          "internalType": "bool",
          "name": "approved",
          "type": "bool"
        }
      ],
      "name": "setApprovalForAll",
      "outputs": [],
      "stateMutability": "nonpayable",
      "type": "function"
    },
    {
      "inputs": [
        {
          "internalType": "bytes4",
          "name": "interfaceId",
          "type": "bytes4"
        }
      ],
      "name": "supportsInterface",
      "outputs": [
        {
          "internalType": "bool",
          "name": "",
          "type": "bool"
        }
      ],
      "stateMutability": "view",
      "type": "function"
    },
    {
      "inputs": [],
      "name": "symbol",
      "outputs": [
        {
          "internalType": "string",
          "name": "",
          "type": "string"
        }
      ],
      "stateMutability": "view",
      "type": "function"
    },
    {
      "inputs": [
        {
          "internalType": "uint256",
          "name": "index",
          "type": "uint256"
        }
      ],
      "name": "tokenByIndex",
      "outputs": [
        {
          "internalType": "uint256",
          "name": "",
          "type": "uint256"
        }
      ],
      "stateMutability": "view",
      "type": "function"
    },
    {
      "inputs": [
        {
          "internalType": "address",
          "name": "owner",
          "type": "address"
        },
        {
          "internalType": "uint256",
          "name": "index",
          "type": "uint256"
        }
      ],
      "name": "tokenOfOwnerByIndex",
      "outputs": [
        {
          "internalType": "uint256",
          "name": "",
          "type": "uint256"
        }
      ],
      "stateMutability": "view",
      "type": "function"
    },
    {
      "inputs": [
        {
          "internalType": "uint256",
          "name": "tokenId",
          "type": "uint256"
        }
      ],
      "name": "tokenURI",
      "outputs": [
        {
          "internalType": "string",
          "name": "",
          "type": "string"
        }
      ],
      "stateMutability": "view",
      "type": "function"
    },
    {
      "inputs": [],
      "name": "totalSupply",
      "outputs": [
        {
          "internalType": "uint256",
          "name": "",
          "type": "uint256"
        }
      ],
      "stateMutability": "view",
      "type": "function"
    },
    {
      "inputs": [
        {
          "internalType": "address",
          "name": "from",
          "type": "address"
        },
        {
          "internalType": "address",
          "name": "to",
          "type": "address"
        },
        {
          "internalType": "uint256",
          "name": "tokenId",
          "type": "uint256"
        }
      ],
      "name": "transferFrom",
      "outputs": [],
      "stateMutability": "nonpayable",
      "type": "function"
    },
    {
      "inputs": [
        {
          "internalType": "address",
          "name": "newOwner",
          "type": "address"
        }
      ],
      "name": "transferOwnership",
      "outputs": [],
      "stateMutability": "nonpayable",
      "type": "function"
    }
  ],
  "bytecode": "0x60806040523480156200001157600080fd5b50604080518082018252600f81526e596f7572436f6c6c65637469626c6560881b6020808301918252835180850190945260038452622ca1a160e91b9084015281519192916200006491600091620000f3565b5080516200007a906001906020840190620000f3565b50505062000097620000916200009d60201b60201c565b620000a1565b620001d6565b3390565b600b80546001600160a01b038381166001600160a01b0319831681179093556040519116919082907f8be0079c531659141344cd1fd0a4f28419497f9722a3daafe3b4186f6b6457e090600090a35050565b828054620001019062000199565b90600052602060002090601f01602090048101928262000125576000855562000170565b82601f106200014057805160ff191683800117855562000170565b8280016001018555821562000170579182015b828111156200017057825182559160200191906001019062000153565b506200017e92915062000182565b5090565b5b808211156200017e576000815560010162000183565b600181811c90821680620001ae57607f821691505b60208210811415620001d057634e487b7160e01b600052602260045260246000fd5b50919050565b611d9880620001e66000396000f3fe608060405234801561001057600080fd5b506004361061012c5760003560e01c80636352211e116100ad578063a22cb46511610071578063a22cb4651461026a578063b88d4fde1461027d578063c87b56dd14610290578063e985e9c5146102a3578063f2fde38b146102df57600080fd5b80636352211e1461022357806370a0823114610236578063715018a6146102495780638da5cb5b1461025157806395d89b411461026257600080fd5b806318160ddd116100f457806318160ddd146101cf57806323b872dd146101d75780632f745c59146101ea57806342842e0e146101fd5780634f6ccce71461021057600080fd5b806301ffc9a71461013157806306fdde0314610159578063081812fc1461016e578063095ea7b314610199578063110bcd45146101ae575b600080fd5b61014461013f366004611a93565b6102f2565b60405190151581526020015b60405180910390f35b610161610303565b6040516101509190611b7b565b61018161017c366004611acb565b610395565b6040516001600160a01b039091168152602001610150565b6101ac6101a7366004611a6a565b610422565b005b6101c16101bc366004611a0b565b610538565b604051908152602001610150565b6008546101c1565b6101ac6101e536600461191d565b61056f565b6101c16101f8366004611a6a565b6105a0565b6101ac61020b36600461191d565b610636565b6101c161021e366004611acb565b610651565b610181610231366004611acb565b6106f2565b6101c16102443660046118d1565b610769565b6101ac6107f0565b600b546001600160a01b0316610181565b610161610856565b6101ac6102783660046119d1565b610865565b6101ac61028b366004611958565b610874565b61016161029e366004611acb565b6108ac565b6101446102b13660046118eb565b6001600160a01b03918216600090815260056020908152604080832093909416825291909152205460ff1690565b6101ac6102ed3660046118d1565b6108b7565b60006102fd82610982565b92915050565b60606000805461031290611ca0565b80601f016020809104026020016040519081016040528092919081815260200182805461033e90611ca0565b801561038b5780601f106103605761010080835404028352916020019161038b565b820191906000526020600020905b81548152906001019060200180831161036e57829003601f168201915b5050505050905090565b60006103a0826109a7565b6104065760405162461bcd60e51b815260206004820152602c60248201527f4552433732313a20617070726f76656420717565727920666f72206e6f6e657860448201526b34b9ba32b73a103a37b5b2b760a11b60648201526084015b60405180910390fd5b506000908152600460205260409020546001600160a01b031690565b600061042d826106f2565b9050806001600160a01b0316836001600160a01b0316141561049b5760405162461bcd60e51b815260206004820152602160248201527f4552433732313a20617070726f76616c20746f2063757272656e74206f776e656044820152603960f91b60648201526084016103fd565b336001600160a01b03821614806104b757506104b781336102b1565b6105295760405162461bcd60e51b815260206004820152603860248201527f4552433732313a20617070726f76652063616c6c6572206973206e6f74206f7760448201527f6e6572206e6f7220617070726f76656420666f7220616c6c000000000000000060648201526084016103fd565b61053383836109c4565b505050565b600080610544600c5490565b9050610554600c80546001019055565b61055e8482610a32565b6105688184610a4c565b9392505050565b6105793382610ad7565b6105955760405162461bcd60e51b81526004016103fd90611be0565b610533838383610bc1565b60006105ab83610769565b821061060d5760405162461bcd60e51b815260206004820152602b60248201527f455243373231456e756d657261626c653a206f776e657220696e646578206f7560448201526a74206f6620626f756e647360a81b60648201526084016103fd565b506001600160a01b03919091166000908152600660209081526040808320938352929052205490565b61053383838360405180602001604052806000815250610874565b600061065c60085490565b82106106bf5760405162461bcd60e51b815260206004820152602c60248201527f455243373231456e756d657261626c653a20676c6f62616c20696e646578206f60448201526b7574206f6620626f756e647360a01b60648201526084016103fd565b600882815481106106e057634e487b7160e01b600052603260045260246000fd5b90600052602060002001549050919050565b6000818152600260205260408120546001600160a01b0316806102fd5760405162461bcd60e51b815260206004820152602960248201527f4552433732313a206f776e657220717565727920666f72206e6f6e657869737460448201526832b73a103a37b5b2b760b91b60648201526084016103fd565b60006001600160a01b0382166107d45760405162461bcd60e51b815260206004820152602a60248201527f4552433732313a2062616c616e636520717565727920666f7220746865207a65604482015269726f206164647265737360b01b60648201526084016103fd565b506001600160a01b031660009081526003602052604090205490565b600b546001600160a01b0316331461084a5760405162461bcd60e51b815260206004820181905260248201527f4f776e61626c653a2063616c6c6572206973206e6f7420746865206f776e657260448201526064016103fd565b6108546000610d6c565b565b60606001805461031290611ca0565b610870338383610dbe565b5050565b61087e3383610ad7565b61089a5760405162461bcd60e51b81526004016103fd90611be0565b6108a684848484610e8d565b50505050565b60606102fd82610ec0565b600b546001600160a01b031633146109115760405162461bcd60e51b815260206004820181905260248201527f4f776e61626c653a2063616c6c6572206973206e6f7420746865206f776e657260448201526064016103fd565b6001600160a01b0381166109765760405162461bcd60e51b815260206004820152602660248201527f4f776e61626c653a206e6577206f776e657220697320746865207a65726f206160448201526564647265737360d01b60648201526084016103fd565b61097f81610d6c565b50565b60006001600160e01b0319821663780e9d6360e01b14806102fd57506102fd8261104c565b6000908152600260205260409020546001600160a01b0316151590565b600081815260046020526040902080546001600160a01b0319166001600160a01b03841690811790915581906109f9826106f2565b6001600160a01b03167f8c5be1e5ebec7d5bd14f71427d1e84f3dd0314c0f7b2291e5b200ac8c7c3b92560405160405180910390a45050565b61087082826040518060200160405280600081525061109c565b610a55826109a7565b610ab85760405162461bcd60e51b815260206004820152602e60248201527f45524337323155524953746f726167653a2055524920736574206f66206e6f6e60448201526d32bc34b9ba32b73a103a37b5b2b760911b60648201526084016103fd565b6000828152600a602090815260409091208251610533928401906117a6565b6000610ae2826109a7565b610b435760405162461bcd60e51b815260206004820152602c60248201527f4552433732313a206f70657261746f7220717565727920666f72206e6f6e657860448201526b34b9ba32b73a103a37b5b2b760a11b60648201526084016103fd565b6000610b4e836106f2565b9050806001600160a01b0316846001600160a01b03161480610b895750836001600160a01b0316610b7e84610395565b6001600160a01b0316145b80610bb957506001600160a01b0380821660009081526005602090815260408083209388168352929052205460ff165b949350505050565b826001600160a01b0316610bd4826106f2565b6001600160a01b031614610c3c5760405162461bcd60e51b815260206004820152602960248201527f4552433732313a207472616e73666572206f6620746f6b656e2074686174206960448201526839903737ba1037bbb760b91b60648201526084016103fd565b6001600160a01b038216610c9e5760405162461bcd60e51b8152602060048201526024808201527f4552433732313a207472616e7366657220746f20746865207a65726f206164646044820152637265737360e01b60648201526084016103fd565b610ca98383836110cf565b610cb46000826109c4565b6001600160a01b0383166000908152600360205260408120805460019290610cdd908490611c5d565b90915550506001600160a01b0382166000908152600360205260408120805460019290610d0b908490611c31565b909155505060008181526002602052604080822080546001600160a01b0319166001600160a01b0386811691821790925591518493918716917fddf252ad1be2c89b69c2b068fc378daa952ba7f163c4a11628f55a4df523b3ef91a4505050565b600b80546001600160a01b038381166001600160a01b0319831681179093556040519116919082907f8be0079c531659141344cd1fd0a4f28419497f9722a3daafe3b4186f6b6457e090600090a35050565b816001600160a01b0316836001600160a01b03161415610e205760405162461bcd60e51b815260206004820152601960248201527f4552433732313a20617070726f766520746f2063616c6c65720000000000000060448201526064016103fd565b6001600160a01b03838116600081815260056020908152604080832094871680845294825291829020805460ff191686151590811790915591519182527f17307eab39ab6107e8899845ad3d59bd9653f200f220920489ca2b5937696c31910160405180910390a3505050565b610e98848484610bc1565b610ea4848484846110da565b6108a65760405162461bcd60e51b81526004016103fd90611b8e565b6060610ecb826109a7565b610f315760405162461bcd60e51b815260206004820152603160248201527f45524337323155524953746f726167653a2055524920717565727920666f72206044820152703737b732bc34b9ba32b73a103a37b5b2b760791b60648201526084016103fd565b6000828152600a602052604081208054610f4a90611ca0565b80601f0160208091040260200160405190810160405280929190818152602001828054610f7690611ca0565b8015610fc35780601f10610f9857610100808354040283529160200191610fc3565b820191906000526020600020905b815481529060010190602001808311610fa657829003601f168201915b505050505090506000610ffe60408051808201909152601581527468747470733a2f2f697066732e696f2f697066732f60581b602082015290565b9050805160001415611011575092915050565b81511561104357808260405160200161102b929190611b0f565b60405160208183030381529060405292505050919050565b610bb9846111e7565b60006001600160e01b031982166380ac58cd60e01b148061107d57506001600160e01b03198216635b5e139f60e01b145b806102fd57506301ffc9a760e01b6001600160e01b03198316146102fd565b6110a683836112db565b6110b360008484846110da565b6105335760405162461bcd60e51b81526004016103fd90611b8e565b61053383838361141a565b60006001600160a01b0384163b156111dc57604051630a85bd0160e11b81526001600160a01b0385169063150b7a029061111e903390899088908890600401611b3e565b602060405180830381600087803b15801561113857600080fd5b505af1925050508015611168575060408051601f3d908101601f1916820190925261116591810190611aaf565b60015b6111c2573d808015611196576040519150601f19603f3d011682016040523d82523d6000602084013e61119b565b606091505b5080516111ba5760405162461bcd60e51b81526004016103fd90611b8e565b805181602001fd5b6001600160e01b031916630a85bd0160e11b149050610bb9565b506001949350505050565b60606111f2826109a7565b6112565760405162461bcd60e51b815260206004820152602f60248201527f4552433732314d657461646174613a2055524920717565727920666f72206e6f60448201526e3732bc34b9ba32b73a103a37b5b2b760891b60648201526084016103fd565b600061128a60408051808201909152601581527468747470733a2f2f697066732e696f2f697066732f60581b602082015290565b905060008151116112aa5760405180602001604052806000815250610568565b806112b4846114d2565b6040516020016112c5929190611b0f565b6040516020818303038152906040529392505050565b6001600160a01b0382166113315760405162461bcd60e51b815260206004820181905260248201527f4552433732313a206d696e7420746f20746865207a65726f206164647265737360448201526064016103fd565b61133a816109a7565b156113875760405162461bcd60e51b815260206004820152601c60248201527f4552433732313a20746f6b656e20616c7265616479206d696e7465640000000060448201526064016103fd565b611393600083836110cf565b6001600160a01b03821660009081526003602052604081208054600192906113bc908490611c31565b909155505060008181526002602052604080822080546001600160a01b0319166001600160a01b03861690811790915590518392907fddf252ad1be2c89b69c2b068fc378daa952ba7f163c4a11628f55a4df523b3ef908290a45050565b6001600160a01b0383166114755761147081600880546000838152600960205260408120829055600182018355919091527ff3f7a9fe364faab93b216da50a3214154f22a0a2b415b23a84c8169e8b636ee30155565b611498565b816001600160a01b0316836001600160a01b0316146114985761149883826115ec565b6001600160a01b0382166114af5761053381611689565b826001600160a01b0316826001600160a01b031614610533576105338282611762565b6060816114f65750506040805180820190915260018152600360fc1b602082015290565b8160005b8115611520578061150a81611cdb565b91506115199050600a83611c49565b91506114fa565b60008167ffffffffffffffff81111561154957634e487b7160e01b600052604160045260246000fd5b6040519080825280601f01601f191660200182016040528015611573576020820181803683370190505b5090505b8415610bb957611588600183611c5d565b9150611595600a86611cf6565b6115a0906030611c31565b60f81b8183815181106115c357634e487b7160e01b600052603260045260246000fd5b60200101906001600160f81b031916908160001a9053506115e5600a86611c49565b9450611577565b600060016115f984610769565b6116039190611c5d565b600083815260076020526040902054909150808214611656576001600160a01b03841660009081526006602090815260408083208584528252808320548484528184208190558352600790915290208190555b5060009182526007602090815260408084208490556001600160a01b039094168352600681528383209183525290812055565b60085460009061169b90600190611c5d565b600083815260096020526040812054600880549394509092849081106116d157634e487b7160e01b600052603260045260246000fd5b90600052602060002001549050806008838154811061170057634e487b7160e01b600052603260045260246000fd5b600091825260208083209091019290925582815260099091526040808220849055858252812055600880548061174657634e487b7160e01b600052603160045260246000fd5b6001900381819060005260206000200160009055905550505050565b600061176d83610769565b6001600160a01b039093166000908152600660209081526040808320868452825280832085905593825260079052919091209190915550565b8280546117b290611ca0565b90600052602060002090601f0160209004810192826117d4576000855561181a565b82601f106117ed57805160ff191683800117855561181a565b8280016001018555821561181a579182015b8281111561181a5782518255916020019190600101906117ff565b5061182692915061182a565b5090565b5b80821115611826576000815560010161182b565b600067ffffffffffffffff8084111561185a5761185a611d36565b604051601f8501601f19908116603f0116810190828211818310171561188257611882611d36565b8160405280935085815286868601111561189b57600080fd5b858560208301376000602087830101525050509392505050565b80356001600160a01b03811681146118cc57600080fd5b919050565b6000602082840312156118e2578081fd5b610568826118b5565b600080604083850312156118fd578081fd5b611906836118b5565b9150611914602084016118b5565b90509250929050565b600080600060608486031215611931578081fd5b61193a846118b5565b9250611948602085016118b5565b9150604084013590509250925092565b6000806000806080858703121561196d578081fd5b611976856118b5565b9350611984602086016118b5565b925060408501359150606085013567ffffffffffffffff8111156119a6578182fd5b8501601f810187136119b6578182fd5b6119c58782356020840161183f565b91505092959194509250565b600080604083850312156119e3578182fd5b6119ec836118b5565b915060208301358015158114611a00578182fd5b809150509250929050565b60008060408385031215611a1d578182fd5b611a26836118b5565b9150602083013567ffffffffffffffff811115611a41578182fd5b8301601f81018513611a51578182fd5b611a608582356020840161183f565b9150509250929050565b60008060408385031215611a7c578182fd5b611a85836118b5565b946020939093013593505050565b600060208284031215611aa4578081fd5b813561056881611d4c565b600060208284031215611ac0578081fd5b815161056881611d4c565b600060208284031215611adc578081fd5b5035919050565b60008151808452611afb816020860160208601611c74565b601f01601f19169290920160200192915050565b60008351611b21818460208801611c74565b835190830190611b35818360208801611c74565b01949350505050565b6001600160a01b0385811682528416602082015260408101839052608060608201819052600090611b7190830184611ae3565b9695505050505050565b6020815260006105686020830184611ae3565b60208082526032908201527f4552433732313a207472616e7366657220746f206e6f6e20455243373231526560408201527131b2b4bb32b91034b6b83632b6b2b73a32b960711b606082015260800190565b60208082526031908201527f4552433732313a207472616e736665722063616c6c6572206973206e6f74206f6040820152701ddb995c881b9bdc88185c1c1c9bdd9959607a1b606082015260800190565b60008219821115611c4457611c44611d0a565b500190565b600082611c5857611c58611d20565b500490565b600082821015611c6f57611c6f611d0a565b500390565b60005b83811015611c8f578181015183820152602001611c77565b838111156108a65750506000910152565b600181811c90821680611cb457607f821691505b60208210811415611cd557634e487b7160e01b600052602260045260246000fd5b50919050565b6000600019821415611cef57611cef611d0a565b5060010190565b600082611d0557611d05611d20565b500690565b634e487b7160e01b600052601160045260246000fd5b634e487b7160e01b600052601260045260246000fd5b634e487b7160e01b600052604160045260246000fd5b6001600160e01b03198116811461097f57600080fdfea2646970667358221220097c26f7c3b15af2409cf0e5d4b6f434a045c91794ea1f8e911194a3beb81bad64736f6c63430008040033",
  "linkReferences": {},
  "deployedLinkReferences": {}
}